:100000000C9462000C948A000C948A000C948A0070
:100010000C948A000C948A000C948A000C948A0038
:100020000C948A000C948A000C948A000C948A0028
:100030000C948A000C948A000C948A000C948A0018
:100040000C949B040C948A000C9469040C94430453
:100050000C948A000C948A000C948A000C948A00F8
:100060000C948A000C948A000000000024002700F1
:100070002A0000000000250028002B0000000000DE
:1000800023002600290004040404040404040202DA
:100090000202020203030303030301020408102007
:1000A0004080010204081020010204081020000012
:1000B0000008000201000003040700000000000027
:1000C0000000190611241FBECFEFD8E0DEBFCDBF60
:1000D00011E0A0E0B1E0E2E4FFE002C005900D9283
:1000E000A836B107D9F722E0A8E6B1E001C01D9219
:1000F000AF31B207E1F710E0C2E6D0E004C02197CB
:10010000FE010E949907C136D107C9F70E94E50494
:100110000C949F070C940000AF92BF92CF92DF9295
:10012000EF92FF920F931F93CF93DF936C017B01AC
:100130008B01040F151FEB015E01AE18BF08C0173D
:10014000D10759F06991D601ED91FC910190F081B0
:10015000E02DC6010995892B79F7C501DF91CF9173
:100160001F910F91FF90EF90DF90CF90BF90AF90D5
:100170000895FC01538D448D252F30E0842F90E0AD
:10018000821B930B541710F0CF9608950197089592
:10019000FC01918D828D981761F0A28DAE0FBF2F5B
:1001A000B11D5D968C91928D9F5F9F73928F90E0B1
:1001B00008958FEF9FEF0895FC01918D828D981720
:1001C00031F0828DE80FF11D858D90E008958FEF5D
:1001D0009FEF0895FC01918D228D892F90E0805C26
:1001E0009F4F821B91098F739927089582E891E0B0
:1001F0000E94EA0021E0892B09F420E0822F089573
:1002000080E090E0892B29F00E94F60081110C9487
:1002100000000895FC01A48DA80FB92FB11DA35AA9
:10022000BF4F2C91848D90E001968F739927848F16
:10023000A689B7892C93A089B1898C918370806439
:100240008C93938D848D981306C00288F389E02DDA
:1002500080818F7D80830895EF92FF920F931F938B
:10026000CF93DF93EC0181E0888F9B8D8C8D981369
:100270001AC0E889F989808185FF15C09FB7F89475
:10028000EE89FF896083E889F989808183708064C1
:1002900080839FBF81E090E0DF91CF911F910F910C
:1002A000FF90EF900895F62E0B8D10E00F5F1F4F1B
:1002B0000F731127E02E8C8D8E110CC00FB607FC2A
:1002C000FACFE889F989808185FFF5CFCE010E94B8
:1002D0000A01F1CFEB8DEC0FFD2FF11DE35AFF4F1B
:1002E000F0829FB7F8940B8FEA89FB898081806246
:1002F000CFCFCF93DF93EC01888D8823B9F0AA8903
:10030000BB89E889F9898C9185FD03C0808186FDD0
:100310000DC00FB607FCF7CF8C9185FFF2CF80811F
:1003200085FFEDCFCE010E940A01E9CFDF91CF9189
:100330000895833081F028F4813099F08230A9F05B
:1003400008958730A9F08830C9F08430B1F48091E5
:1003500080008F7D03C0809180008F778093800024
:10036000089584B58F7784BD089584B58F7DFBCFC4
:100370008091B0008F778093B00008958091B00095
:100380008F7DF9CFCF93DF93282F30E0F901E2552D
:10039000FF4F8491F901E656FF4FD491F901EA57D6
:1003A000FF4FC491CC23A1F081110E949901EC2F41
:1003B000F0E0EE0FFF1FE458FF4FA591B491EC91D0
:1003C000ED2381E090E009F480E0DF91CF91089582
:1003D00080E090E0FACF1F93CF93DF93282F30E097
:1003E000F901E255FF4F8491F901E656FF4FD49190
:1003F000F901EA57FF4FC491CC23A9F0162F8111C0
:100400000E949901EC2FF0E0EE0FFF1FEE58FF4F16
:10041000A591B4918FB7F894EC91111108C0D095C3
:10042000DE23DC938FBFDF91CF911F910895DE2BE8
:10043000F8CFCF93DF9390E0FC01E656FF4F249175
:100440008A579F4FFC0184918823D1F090E0880F58
:10045000991FFC01E859FF4FA591B491FC01EE589A
:10046000FF4FC591D49161110EC09FB7F8948C9144
:10047000E22FE0958E238C932881E223E8839FBFAF
:10048000DF91CF9108958FB7F894EC91E22BEC9324
:100490008FBFF6CF3FB7F8948091690190916A01C0
:1004A000A0916B01B0916C0126B5A89B05C02F3FB0
:1004B00019F00196A11DB11D3FBFBA2FA92F982F8A
:1004C0008827BC01CD01620F711D811D911D42E085
:1004D000660F771F881F991F4A95D1F708958F924D
:1004E0009F92AF92BF92CF92DF92EF92FF924B0119
:1004F0005C010E944A026B017C010E944A026C1955
:100500007D098E099F09683E734081059105A8F316
:1005100021E0821A9108A108B10888EEC80E83E094
:10052000D81EE11CF11C81149104A104B10429F727
:10053000FF90EF90DF90CF90BF90AF909F908F9003
:1005400008958F929F92AF92BF92CF92DF92EF92D7
:10055000FF920F931F93CF93DF932FB7F89480915F
:100560006D0190916E01A0916F01B09170012FBF4C
:1005700040917E0150917F016091800170918101D5
:100580008C019D01041B150B260B370B40917A0142
:1005900050917B014130510509F072C047EE53E0A4
:1005A00060E070E0041715072607370708F45BC002
:1005B00080937E0190937F01A0938001B09381018D
:1005C00080E090E0A0ECBFE780937101909372010E
:1005D000A0937301B0937401809375019093760199
:1005E000A0937701B093780160E0809179010E9437
:1005F000EB0161E0809179010E94190280917A01FA
:1006000090917B01019709F040C062E170E080E0C9
:1006100090E00E946F0260E0809179010E941902CF
:1006200061E0809179010E94EB013DEFF32ED0E073
:10063000C0E0D12CC12C10E000E00E944A02862EBE
:100640008F2D8170982EA82E880FBB080E944A0219
:10065000E62EE8188AE58E1500F581E090E090938B
:100660007D0180937C01DF91CF911F910F91FF90CD
:10067000EF90DF90CF90BF90AF909F908F900895B4
:100680004FEC57E060E070E08DCF8BE79CE0019786
:10069000F1F7C1CF6801F394D0CF809179010E9426
:1006A000C2018A159B0591F2F7FC0EC0992031F02A
:1006B000000F111F8EE18E1508F401608FE1F8160E
:1006C00049F38FE3F81689F08FE4F812E4CF6D2D2B
:1006D0007727ED2EFF248C2F8C0D860F8E0D801723
:1006E000110639F082E090E0BACFE80110E000E0B6
:1006F000D2CF80917A0190917B010197F1F490E043
:1007000080E00E947C06609375017093760180936F
:10071000770190937801B70190E080E00E947C0619
:1007200060937101709372018093730190937401CF
:1007300010927D0110927C0196CFB60190E080E08E
:100740000E947C062DEC3CEC4CEC5DE30E94E20642
:10075000609375017093760180937701909378018F
:10076000D7FF04C0DF77D195C195D109BE01DD0F58
:10077000880B990B0E947E062DEC3CEC4CEC5DE363
:100780000E94E206CDCFFC0101900020E9F73197ED
:10079000AF01481B590BBC0182E891E00C948C001E
:1007A0008F929F92AF92BF920F931F93CF93DF933D
:1007B000CDB7DEB7A1970FB6F894DEBF0FBECDBFA1
:1007C00019A2423008F44AE08E010F5D1F4F842EBB
:1007D000912CB12CA12CA50194010E947707E62F42
:1007E000B901CA01EA30F4F4E05DD801EE938D015D
:1007F000232B242B252B79F790E080E0109719F01C
:10080000CD010E94C303A1960FB6F894DEBF0FBEC0
:10081000CDBFDF91CF911F910F91BF90AF909F906F
:100820008F900895E95CE1CFCF92DF92EF92FF9233
:10083000CF93DF936B017C016DE282E891E00E942F
:100840002C01EC0166277727CB016C197D098E09F5
:100850009F094AE00E94D0038C0F9D1FDF91CF912A
:10086000FF90EF90DF90CF900895CF93DF930E9499
:10087000C303EC0182E191E00E94C3038C0F9D1F32
:10088000DF91CF9108951F920F920FB60F9211240E
:100890002F933F934F935F936F937F938F939F9388
:1008A000AF93BF93EF93FF9382E891E00E940A0118
:1008B000FF91EF91BF91AF919F918F917F916F9138
:1008C0005F914F913F912F910F900FBE0F901F900E
:1008D00018951F920F920FB60F9211242F938F939A
:1008E0009F93EF93FF93E0919201F09193018081A8
:1008F000E0919801F091990182FD1BC09081809157
:100900009B018F5F8F7320919C01821741F0E091D2
:100910009B01F0E0EE57FE4F958F80939B01FF9176
:10092000EF919F918F912F910F900FBE0F901F907D
:1009300018958081F4CF1F920F920FB60F92112459
:100940002F933F938F939F93AF93BF9380916D01AC
:1009500090916E01A0916F01B0917001309168018A
:1009600023E0230F2D3758F50196A11DB11D2093CB
:10097000680180936D0190936E01A0936F01B09315
:1009800070018091690190916A01A0916B01B09111
:100990006C010196A11DB11D8093690190936A01BC
:1009A000A0936B01B0936C01BF91AF919F918F9118
:1009B0003F912F910F900FBE0F901F90189526E832
:1009C000230F0296A11DB11DD2CF789484B5826009
:1009D00084BD84B5816084BD85B5826085BD85B5E3
:1009E000816085BD80916E00816080936E00109261
:1009F00081008091810082608093810080918100DC
:100A0000816080938100809180008160809380006C
:100A10008091B10084608093B1008091B0008160CA
:100A20008093B00080917A00846080937A008091F6
:100A30007A00826080937A0080917A00816080934E
:100A40007A0080917A00806880937A001092C100C9
:100A5000E0919201F091930182E08083E0918E0118
:100A6000F0918F011082E0919001F09191018FEC53
:100A7000808310929A01E0919601F091970186E0AF
:100A80008083E0919401F091950180818061808361
:100A9000E0919401F0919501808188608083E091DC
:100AA0009401F0919501808180688083E0919401A8
:100AB000F091950180818F7D808360E082E00E94CB
:100AC000190261E08EE00E94190283E080937901AF
:100AD00010927B0110927A012FB7F89480916D01EA
:100AE00090916E01A0916F01B09170012FBF885B52
:100AF0009B40A109B10980937E0190937F01A0934F
:100B00008001B093810182E090E090937B0180931B
:100B10007A010E94A10280917C0190917D01813037
:100B2000910521F490937B0180937A01C0E0D0E09D
:100B300082E00E94C201019709F06DC086E291E057
:100B40000E9435040E94A102C0907501D0907601E8
:100B5000E0907701F09078010E94A10280917C01E1
:100B600090917D018130910509F458C0029729F4D4
:100B70008DE191E08454914049F5C701B6010E948E
:100B80004606C0907101D0907201E0907301F09020
:100B90007401072E000C880B990B97FF42C00E942E
:100BA0001404C701B6010E9446066B0187E491E078
:100BB0000E94C303B601DD0C880B990B97FF35C06B
:100BC0000E9414048EE491E00E94350480917A0121
:100BD00090917B0160ED77E0019711F468EE73E08E
:100BE000072E000C880B990B0E946F0268EE73E0D1
:100BF00080E090E00E946F0281E591E00E94350460
:100C0000209709F495CF0E94F600882309F490CF2D
:100C10000E9400008DCF88E391E092CF85E191E0C2
:100C2000A9CF4AE00E94D003BCCF4AE00E94D00383
:100C3000C9CFE2E8F1E01382128288EE93E0A0E0EF
:100C4000B0E084839583A683B78384E091E09183A9
:100C5000808385EC90E09587848784EC90E097878B
:100C6000868780EC90E0918B808B81EC90E0938B79
:100C7000828B82EC90E0958B848B86EC90E0978B56
:100C8000868B118E128E138E148E08950E944D063F
:100C90006894B1110C94DC0608950E94C10688F096
:100CA0009F5798F0B92F9927B751B0F0E1F0660F30
:100CB000771F881F991F1AF0BA95C9F714C0B13071
:100CC00091F00E94DB06B1E008950C94DB06672FDB
:100CD000782F8827B85F39F0B93FCCF386957795A0
:100CE0006795B395D9F73EF4909580957095619589
:100CF0007F4F8F4F9F4F0895E89409C097FB3EF4B4
:100D000090958095709561957F4F8F4F9F4F992358
:100D1000A9F0F92F96E9BB279395F69587957795D6
:100D20006795B795F111F8CFFAF4BB0F11F460FF96
:100D30001BC06F5F7F4F8F4F9F4F16C0882311F0EE
:100D400096E911C0772321F09EE8872F762F05C002
:100D5000662371F096E8862F70E060E02AF09A959D
:100D6000660F771F881FDAF7880F9695879597F992
:100D7000089557FD9058440F551F59F05F3F71F08B
:100D80004795880F97FB991F61F09F3F79F08795F2
:100D90000895121613061406551FF2CF4695F1DF7B
:100DA00008C0161617061806991FF1CF869571050B
:100DB000610508940895E894BB2766277727CB013F
:100DC00097F908950E94F5060C9466070E9458074B
:100DD00038F00E945F0720F0952311F00C944F0724
:100DE0000C94550711240C94DC060E94B90670F38C
:100DF000959FC1F3950F50E0551F629FF001729FC0
:100E0000BB27F00DB11D639FAA27F00DB11DAA1FCE
:100E1000649F6627B00DA11D661F829F2227B00D1B
:100E2000A11D621F739FB00DA11D621F839FA00DA6
:100E3000611D221F749F3327A00D611D231F849FF6
:100E4000600D211D822F762F6A2F11249F5750404D
:100E50009AF0F1F088234AF0EE0FFF1FBB1F661FC8
:100E6000771F881F91505040A9F79E3F510580F091
:100E70000C944F070C94DC065F3FE4F3983ED4F3E8
:100E8000869577956795B795F795E7959F5FC1F735
:100E9000FE2B880F911D9695879597F9089597F9E0
:100EA0009F6780E870E060E008959FEF80EC089510
:100EB00000240A9416161706180609060895002439
:100EC0000A9412161306140605060895092E0394B3
:100ED000000C11F4882352F0BB0F40F4BF2B11F427
:100EE00060FF04C06F5F7F4F8F4F9F4F0895A1E257
:100EF0001A2EAA1BBB1BFD010DC0AA1FBB1FEE1F94
:100F0000FF1FA217B307E407F50720F0A21BB30BDE
:100F1000E40BF50B661F771F881F991F1A9469F75A
:100F200060957095809590959B01AC01BD01CF01B6
:100F30000895EE0FFF1F0590F491E02D0994F894A9
:020F4000FFCFE1
:100F4200000000002C018C00B9007901EA00C80001
:100F5200DC000D0A0054494D454F555400434845A5
:100F6200434B53554D006D6F76656D656E7420640D
:100F720065746563746564006E6F206D6F76656D70
:100F8200656E74004F4B00255248207C20002A4396
:100F9200005F5F5F5F5F5F5F5F5F5F5F5F5F5F5FBE
:080FA2005F5F5F5F5F5F00000D
:107E0000112484B714BE81FFF0D085E080938100F7
:107E100082E08093C00088E18093C10086E0809377
:107E2000C20080E18093C4008EE0C9D0259A86E02C
:107E300020E33CEF91E0309385002093840096BBD3
:107E4000B09BFECF1D9AA8958150A9F7CC24DD24C4
:107E500088248394B5E0AB2EA1E19A2EF3E0BF2EE7
:107E6000A2D0813461F49FD0082FAFD0023811F036
:107E7000013811F484E001C083E08DD089C08234E0
:107E800011F484E103C0853419F485E0A6D080C0E4
:107E9000853579F488D0E82EFF2485D0082F10E0AE
:107EA000102F00270E291F29000F111F8ED06801E7
:107EB0006FC0863521F484E090D080E0DECF843638
:107EC00009F040C070D06FD0082F6DD080E0C81688
:107ED00080E7D80618F4F601B7BEE895C0E0D1E017
:107EE00062D089930C17E1F7F0E0CF16F0E7DF06D8
:107EF00018F0F601B7BEE89568D007B600FCFDCFD4
:107F0000A601A0E0B1E02C9130E011968C91119780
:107F100090E0982F8827822B932B1296FA010C0160
:107F200087BEE89511244E5F5F4FF1E0A038BF0790
:107F300051F7F601A7BEE89507B600FCFDCF97BE46
:107F4000E89526C08437B1F42ED02DD0F82E2BD052
:107F50003CD0F601EF2C8F010F5F1F4F84911BD097
:107F6000EA94F801C1F70894C11CD11CFA94CF0C13
:107F7000D11C0EC0853739F428D08EE10CD085E9AC
:107F80000AD08FE07ACF813511F488E018D01DD067
:107F900080E101D065CF982F8091C00085FFFCCF94
:107FA0009093C60008958091C00087FFFCCF809118
:107FB000C00084FD01C0A8958091C6000895E0E648
:107FC000F0E098E1908380830895EDDF803219F02E
:107FD00088E0F5DFFFCF84E1DECF1F93182FE3DFCA
:107FE0001150E9F7F2DF1F91089580E0E8DFEE27F6
:047FF000FF270994CA
:027FFE00040479
:0400000300007E007B
:00000001FF
